:100000003BC09DC154C053C052C051C050C04FC02E
:100010004EC04DC0B2C54BC04AC049C048C047C021
:1000200046C045C044C00902120001010080190900
:10003000040000000000000012011001FF00000891
:10004000C016DC050401010200010E035500530037
:1000500042006100730070001C0377007700770096
:100060002E00660069007300630068006C002E00BB
:10007000640065000403090411241FBECFE5D4E029
:10008000DEBFCDBF10E0A0E6B0E0E8E8F2E102C0DC
:1000900005900D92A236B107D9F721E0A2E6B0E0B3
:1000A00001C01D92AE3AB207E1F7C4D8EBC8A8CFA1
:1000B000CF93DF9360918A01635067FD14C0209154
:1000C00087018CE090E0821B9109EC01C257DE4F62
:1000D000809186018D3209F455C08091620087FDC0
:1000E00097C010928A018091610084FF3EC06091A8
:1000F00060006F3FD1F1693008F46CC068506093C4
:10010000600090917A0188E8892780937A0168E0FD
:100110008091620087FD1CC0209188013091890187
:1001200086FF6DC0ABE7B1E0F901962F84918D9306
:1001300031969150D9F78FEF860F90E00196280FF6
:10014000391F3093890120938801C4E0C60F4DC048
:100150008BE791E01DD7682F893008F49FC08FEF9F
:1001600080936000CEE1C093610094E186B3837018
:1001700031F49150D9F710928B0110928501DF91E3
:10018000CF910895683009F0ACCF83EC80937A0169
:100190008AE580936100109262008881807609F080
:1001A00041C08A81109283019981911146C01092B9
:1001B000840123E831E082E03093890120938801B3
:1001C0009F81911104C09E81981708F4892F809314
:1001D000600087CF1092600090917A0188E88927AB
:1001E00080937A01611194CFC4E08BE791E0A3D0B2
:1001F000CC3009F4B8CF8FEF80936000B4CFD90131
:10020000EBE7F1E0962F8D9181939150E1F793CF39
:10021000CE013ED78F3F01F1882309F462CF1092BF
:1002200060005FCFCE01C7D48F3F51F6988197FD14
:100230001DC090E890936200CACF953089F0963047
:1002400009F19830D9F0993099F081E09A3009F0AD
:1002500080E023E831E0B0CF8EE18093610041CFB0
:1002600080938B0123E831E080E0A6CF8E81E1CF3F
:1002700080938D0123E831E080E09ECF2DE831E0CE
:1002800081E09ACF9B819130F1F09230A1F09330D0
:1002900041F080E090E49093620092CFC4E0C80FF8
:1002A000A4CF811118C084E790E0909389018093D6
:1002B000880184E0EFCF86E290E0909389018093FB
:1002C000880182E1E7CF88E390E0909389018093F1
:1002D000880182E1DFCF813051F08230D1F68AE4AB
:1002E00090E090938901809388018EE0D3CF88E5D8
:1002F00090E090938901809388018CE1CBCF85B702
:10030000836085BF8BB780648BBF0895A82FB92FFA
:1003100080E090E041E050EA609530E009C02D9126
:1003200082279795879510F084279527305EC8F32C
:100330006F5FA8F30895EADF8D939D930895CF939F
:10034000CFB7CF93C395B09BE9F7B09B09C0B09BE3
:1003500007C0B09B05C0B09B03C0B09B01C0A1C04B
:10036000DF93C0918701DD27C257DE4FB09B02C0EB
:10037000DF91EBCF2F930F931F9306B32FEF00FB6B
:1003800020F94F933F9316B34FEF012700FB21F95C
:100390003BE031C04E7F012F16B3216028C0102FE3
:1003A0004D7F2260000006B329C04B7F2460012FDF
:1003B000000016B32BC016B3477F28602AC04F7EBB
:1003C00006B320612CC04F7D16B320622FC04F7B37
:1003D00006B3206432C0422706B349934FEF0000B2
:1003E000102710FB20F916B31370C9F1297F91F281
:1003F000012700FB21F906B3237F89F2315058F120
:10040000102710FB22F916B3277E79F2012700FB93
:1004100023F92F7C81F206B3102710FB24F92F79E2
:1004200071F200C016B3012700FB25F92F7359F2B2
:1004300000C006B3102710FB26F9223040F200C09E
:1004400016B3012700FB27F9243028F64F772068E0
:1004500016B30000F9CF10E41ABF002717C03B50B5
:100460003195C31BD04010E41ABF0881033CE9F06A
:100470000B34D9F0209185011981110F1213EDCFA2
:10048000093641F10D3211F0013E39F700938C012C
:100490003F914F911F910F912F91DF91CAB7C6FDE8
:1004A00051CFCF91CFBFCF91189520918C012223AE
:1004B00079F310918A01112311F5343012F1309340
:1004C0008A0120938601109187013BE0311B309314
:1004D000870117C000918A0101308CF40AE5309140
:1004E000610034FD10C000936100CAE7D1E00FC085
:1004F0002795A8F45150A9F4220F0000F9CF4AE53E
:1005000003C042ED01C0432FC4E1D0E032E017B395
:100510001360C09A17BB08B320E413E05F93012770
:1005200056E008BB279520F4515021F4220FF9CF53
:10053000012756E000003B5A08BBD0F2279528F46B
:10054000515029F4220F0000F9CF012756E02795DA
:1005500008BB20F4515021F4220FF9CF012756E0B7
:100560002991332308BB21F60C7F10918B01110FC9
:10057000C651D04008BB11F01093850110E41ABF9A
:10058000016017B31C7F402F4C7F5F9100C000C0FB
:1005900008BB17BB48BB7CCF582F48E080E057FD15
:1005A00018C0C398550F880FB4998F5FC59A32B79A
:1005B0002091A90192B7931B9217E0F3C59832B727
:1005C0002091A90192B7931B9217E0F3415039F79C
:1005D0000895C39AE7CF8FB9779BFECF8FB1089567
:1005E000DC01CB0121E1B695A795979587952A95D2
:1005F000D1F72091A8012817D9F08093A801E091A4
:10060000A501F091A6018DE40995E091A501F09175
:10061000A60180E00995E091A501F091A6018091E5
:10062000A8010995E091A501F091A60180E0099447
:1006300008958091A7018DB98091A4018EB9089584
:100640008823A1F08830D0F52CEC32E03093A6015D
:100650002093A5018430F1F008F18630C1F030F12B
:100660008730A1F483E08093A90108958BEE92E096
:100670009093A6018093A50181E08093A90182E572
:100680008093A70181E08093A401089580EC80937A
:10069000A901089588E18093A9010895823051F05D
:1006A0008330A1F780E38093A90108958CE08093C3
:1006B000A901089580E68093A90108952BEE32E008
:1006C0003093A6012093A5011092A40191E090938C
:1006D000A901893059F070F08B3021F08C3079F617
:1006E0009093A40181E58093A701089582E580930A
:1006F000A7010895883019F683E58093A70108952E
:1007000022B79091A90182B7821B8917E0F308955F
:1007100087B38C6287BBC298C59822B79091A90114
:1007200082B7821B8917E0F3C29A22B79091A90180
:1007300082B7821B8917E0F3C2988091A50190913E
:10074000A6018B5E924019F01092A8010895809145
:10075000A7018DB98091A4018EB91092A8010895C6
:1007600087B3837D87BB88B3837D88BB1DB808951D
:1007700080E187BB84E088BB80EC8DB90895CF937E
:10078000DF93C0E2E091A501F091A6018CEA099502
:10079000E091A501F091A60183E50995E091A501FD
:1007A000F091A60180E00995D82FE091A501F09184
:1007B000A60180E00995D33561F11DB822B790916B
:1007C000A90182B7821B8917E0F3C29A22B79091E0
:1007D000A90182B7821B8917E0F3C29822B79091D2
:1007E000A90182B7821B8917E0F38091A50190913E
:1007F000A6018B5E924031F0C15021F681E0DF917D
:10080000CF9108958091A7018DB98091A4018EB9EF
:10081000F3CF80E0DF91CF910895CF92DF92EF92F6
:10082000FF926B017C01DCDE8C2D8170880F880FBC
:10083000880FE091A501F091A60180620995D7018A
:10084000C60129E0B695A795979587952A95D1F782
:10085000E091A501F091A6010995D701C601B695D1
:10086000A79597958795E091A501F091A601099527
:10087000E091A501F091A60180E0FF90EF90DF905C
:10088000CF900994CF92DF92EF92FF920F931F9334
:10089000CF93DF931F92CDB7DEB76B017C01142F8E
:1008A00029839EDE9C2D9170892F880F880F880FD9
:1008B000E091A501F091A60180640995D701C601D8
:1008C00029E0B695A795979587952A95D1F7E09158
:1008D000A501F091A6010995D701C601B695A79586
:1008E00097958795E091A501F091A6010995E09172
:1008F000A501F091A601812F099529812223A9F054
:100900001F3789F002B71EE1C701B60186DF8F37B6
:1009100061F482B7801B8D3310F002B711501111B2
:10092000F3CF81E003C08FE0B3D080E00F90DF9180
:10093000CF911F910F91FF90EF90DF90CF9008958E
:10094000CF92DF92EF92FF920F931F93CF93DF939B
:100950001F92CDB7DEB76B017C01498341DEE09188
:10096000A501F091A6018CE40995D701C60129E003
:10097000B695A795979587952A95D1F7E091A5010A
:10098000F091A6010995D701C601B695A79597954F
:100990008795E091A501F091A6010995E091A50147
:1009A000F091A60180E0099549814F3FE1F002B73F
:1009B0001EE1C701B60131DF8F3F99F482B7801B7A
:1009C0008D3310F002B711501111F3CF81E00F9069
:1009D000DF91CF911F910F91FF90EF90DF90CF901B
:1009E000089580E0F4CF8FE053D080E0F0CF1F93E4
:1009F000CF93DF931F92CDB7DEB7182FE091A501FB
:100A0000F091A60180EA99830995E091A501F09102
:100A1000A6019981892F0995E091A501F091A60180
:100A2000812F0995E091A501F091A60180E00F903A
:100A3000DF91CF911F9109941F93CF93DF9300D043
:100A4000CDB7DEB7182FE091A501F091A60180EC9B
:100A50006A8399830995E091A501F091A601998196
:100A6000892F0995E091A501F091A601812F0995A3
:100A7000E091A501F091A6016A81862F09958EE18A
:100A800007D080E00F900F90DF91CF911F910895D4
:100A9000882349F030E022B792B7921B9C33E0F3F1
:100AA0003F5F3813F8CF0895BD9ABB98C39A50E2C0
:100AB00017D05A95E9F70895AC0188E605D0842F40
:100AC00003D089E601D0852F0FD028E030E0382709
:100AD00080FB869506D02A95D1F730FB02D000D056
:100AE0006894BB98C39A16F0C398BB9AE091AA0188
:100AF000F091AB013197F0F7C59AE6B3E3FBE091D3
:100B0000AA01F091AB013197F0F7C598089520EC58
:100B1000E7DF46F42A95E1F780E02AE1E5DF2A9550
:100B2000E9F7DECF28E030E0DBDF869587F938276C
:100B30002A95D1F7D5DF27F9322772F3D1DFD0CF4D
:100B4000DB01742FB9DF84E2BFDFE1DF8D937A959B
:100B5000D1F70895DB01742FAFDF83EFB5DF8DE1AF
:100B6000B3DF84E6B1DF8D91AFDF82E7ADDFCFDFAA
:100B70008078D9F77A9589F7089578941F920F9223
:100B80000FB60F9211248F939F93EF93FF93809151
:100B900070009FB1E82FF0E0EE58FF4F90838F5F19
:100BA00080937000FF91EF919F918F910F900FBEF6
:100BB0000F901F901895CF93DF93EC01998191309E
:100BC000D1F1923009F4B9C0933009F46CC094307B
:100BD000E9F1973009F48CC0953009F430C19630B2
:100BE00009F4AFC0983009F4E6C0993009F42CC17B
:100BF0009A3009F45BC19B3009F480C19C3009F440
:100C00009DC19D3009F4AFC19E3009F4B1C19F3040
:100C100009F42BC1903109F450C19F3709F483C105
:100C2000903209F4A9C1923209F4ACC1913209F4AD
:100C3000EDC080E02FC09A9B58C080916E0000DD0F
:100C400010926D00A99864DD80E024C080916D0051
:100C5000811112C08B8190E0982F88272A81822BE6
:100C6000092E000CAA0BBB0B8093690090936A00BD
:100C7000A0936B00B0936C008F8190E0982F882731
:100C80002E81822B909368008093670082E080938E
:100C90006F008FEF22E731E03093890120938801C4
:100CA000DF91CF910895E091A501F091A6018A818D
:100CB000099580937201E091A501F091A6018B81C5
:100CC000099580937301E091A501F091A6018C81B3
:100CD000099580937401E091A501F091A6018D81A1
:100CE00009958093750184E0D5CF85E0A9DCA8CF74
:100CF00080916D00811112C08B8190E0982F882720
:100D00002A81822B092E000CAA0BBB0B8093690051
:100D100090936A00A0936B00B0936C008F8190E079
:100D2000982F88272E81822B9093680080936700EC
:100D300083E080936F008FEFADCF12DDA99A80E042
:100D4000A9CF80916D00811112C08B8190E0982F06
:100D500088272A81822B092E000CAA0BBB0B8093BB
:100D6000690090936A00A0936B00B0936C003C8183
:100D70002D81822F8F7080936400822F807F40E1CD
:100D8000849FC0011124830F911D9093660080936E
:100D9000650020FD809363008F8190E0982F882765
:100DA0002E81822B909368008093670081E080936E
:100DB0006F008FEF6FCF80916D00811112C08B811A
:100DC00090E0982F88272A81822B092E000CAA0BED
:100DD000BB0B8093690090936A00A0936B00B09363
:100DE0006C001092660010926500109264008F8172
:100DF00090E0982F88272E81822B90936800809313
:100E0000670084E080936F008FEF44CF9091710072
:100E100030917000931709F40CCFA2E7B1E080E0A5
:100E2000E92FF0E0EE58FF4F20812D939F5F8F5FF9
:100E3000931711F08830A1F7909371002BCF9FDCAE
:100E40008093720181E026CF81E080936D008A81DA
:100E50009B81AC81BD818093690090936A00A093CF
:100E60006B00B0936C0080E015CF8B8190E0982FE1
:100E700088272A81822B092E000CAA0BBB0B80939A
:100E8000690090936A00A0936B00B0936C008F810F
:100E900090E0982F88272E81822B90936800809372
:100EA000670085E080936F008FEFF4CE8A81809396
:100EB0006E001092720181E0EDCE8B8190E0982F50
:100EC00088272A81822B092E000CAA0BBB0B80934A
:100ED000690090936A00A0936B00B0936C008F81BF
:100EE00090E0982F88272E81822B90936800809322
:100EF000670086E080936F008FEFCCCE8B8190E00F
:100F0000982F88272A81822B9093AB018093AA0186
:100F1000C29ABA9A83E0BCDDC298A99880E1B8DD94
:100F2000C3DD80E0B7CE81E080937201109273013F
:100F3000109274011092750184E0ACCE80ECC4DD97
:100F400080E0C2DD8AE0A4DDC29A85E0A1DDC2981E
:100F500085E09EDD87B3837D87BB88B3837D88BBB7
:100F6000A99A80E097CED3DD8093720181E092CE82
:100F70008A81AADD80E08ECEFBDB87E080936F0064
:100F800080E088CEA99AECDB10926F0080E082CEE0
:100F9000FF920F931F93CF93DF93582F792FF62E45
:100FA00020916F003EEF320F323050F0253009F4BF
:100FB00052C08FEFDF91CF911F910F91FF90089555
:100FC000662309F43FC08091690090916A00A09166
:100FD0006B00B0916C00052F172F3FEF360FE80123
:100FE000C30FD11D1DC003DDF8018083809169000E
:100FF00090916A00A0916B00B0916C000196A11DC8
:10100000B11D8093690090936A00A0936B00B09328
:101010006C000C171D0761F020916F000F5F1F4FD0
:10102000223009F7BC01CD01F8DBF8018083DECF67
:10103000F7E0FF1538F48F2DDF91CF911F910F91BD
:10104000FF90089510926F008F2DDF91CF911F9127
:101050000F91FF900895462F682F8091690090911D
:101060006A006EDD8091690090916A00A0916B002A
:10107000B0916C008F0D911DA11DB11D8093690071
:1010800090936A00A0936B00B0936C008F2D92CF69
:10109000FF920F931F93CF93DF93382F792F162F43
:1010A00020916F00213061F0243051F0263009F496
:1010B00094C08FEFDF91CF911F910F91FF90089512
:1010C000112309F482C08091690090916A00A09177
:1010D0006B00B0916C00C32FD72F1150AE01410FA0
:1010E000511D8A01F12C4DC02091650030916600A0
:1010F000232B09F04FC021E04881BC01CD01C2DBA8
:1011000020916700309168002150310930936800C8
:1011100020936700232BE1F410926F00809164000C
:1011200081FF35C08091630090E02091650030918F
:1011300066008217930759F16091690070916A0007
:1011400080916B0090916C004881FADBFF24F3944E
:101150008091690090916A00A0916B00B0916C0041
:101160000196A11DB11D8093690090936A00A09320
:101170006B00B0936C00C017D10741F120916F0054
:101180002196213009F4B0CF688156DCB9CFFF2415
:10119000F394DECF20E04881BC01CD0173DB809168
:1011A00063008150809363008111AACF6091690030
:1011B00070916A0080916B0090916C004881C0DB57
:1011C00080916500809363009BCFF12C8F2DDF9180
:1011D000CF911F910F91FF900895462F682F809116
:1011E000690090916A00B6DC8091690090916A0074
:1011F000A0916B00B0916C00810F911DA11DB11DDC
:101200008093690090936A00A0936B00B0936C0088
:101210008091670090916800811B9109909368000C
:1012200080936700892B21F410926F0081E042CFF8
:1012300080E040CF12BA18BA11BA8FEF87BB17BA45
:1012400083E084BB9EEF95BB83BF59D8789412E0AE
:10125000C0E0D0E82DD780916F008730D9F780911A
:10126000AC019091AD0101979093AD018093AC01D9
:10127000892B81F785B3812785BBD093AD01C093BE
:08128000AC01E8CFF894FFCFA8
:02128800FF5A0B
:00000001FF
