:100000003BC0ACC154C053C052C051C050C04FC01F
:100010004EC04DC0C5C54BC04AC049C048C047C00E
:1000200046C045C044C0040309041C0377007700A0
:1000300077002E00660069007300630068006C00A2
:100040002E00640065000E0355005300420061005D
:100050007300700012011001FF000008C016DC05DB
:1000600004010102000109021200010100801909C6
:10007000040000000000000011241FBECFE5D4E002
:10008000DEBFCDBF10E0A0E6B0E0E0E2F3E102C0E9
:1000900005900D92A236B107D9F711E0A2E6B0E0C3
:1000A00001C01D92AE3AB107E1F70CD937C9A8CF0C
:1000B0001F93CF93DF9360918A01635067FD13C054
:1000C00080918701CCE0D0E0C81BD109C257DE4F38
:1000D000809186018D3209F462C08091620087FDB3
:1000E00086C010928A018091600084FF4AC06091AE
:1000F00061006F3F09F445C0693070F1685060934A
:10010000610080917A0198E8892780937A0168E0FC
:100110008091620087FD90C04091880150918901D3
:1001200086FF6FC0862F8150C82FD0E09E012458D3
:100130003E4FFA01ABE7B1E084918D933196A2175F
:10014000B307D1F72196C40FD51FD0938901C0936F
:100150008801162F1C5F0BC01092610080917A01FC
:1001600098E8892780937A01662391F614E08BE75B
:1001700091E0F0D01C3019F08FEF80936100109364
:10018000600094E186B3837031F49150D9F71092F6
:100190008B0110928501DF91CF911F9108956830F6
:1001A00009F09FCF83EC80937A018AE58093600009
:1001B0001092620088818076A1F59A811092830165
:1001C0008981882309F044C01092840123E831E03A
:1001D00082E030938901209388019F81992321F443
:1001E0009E81981708F4892F809361007ACFCE0101
:1001F0009AD78F3FE1F1882309F473CF1092610001
:1002000070CFDA01862F8150C82FD0E09E0124588C
:100210003E4FEBE7F1E08D918193E217F307D9F7B9
:1002200091CFCE01DBD48F3FC1F6988197FD29C0D5
:1002300090E890936200D8CF8BE791E0FDD6682FCD
:10024000893008F460C08FEF809361001EE197CF82
:10025000853089F08630B9F0883059F1893069F1FC
:100260008A3009F440C023E831E080E0B2CF8EE16B
:100270008093600036CF90938B0123E831E080E0DB
:10028000A8CF8E81D5CF8B81813029F18230D9F0F2
:10029000833029F080E090E4909362009ECF992310
:1002A00031F586E290E0909389018093880184E0A3
:1002B000F2CF2DE831E081E08CCF90938D0123E8DF
:1002C00031E080E086CF86E690E0909389018093CC
:1002D000880182E1E0CF84E590E0909389018093EA
:1002E000880182E1D8CF23E831E081E072CF9130FC
:1002F00069F0923079F686E490E0909389018093DA
:1003000088018EE0C8CF182F1C5F31CF8AE290E0C1
:1003100090938901809388018CE1BDCF85B783607C
:1003200085BF8BB780648BBF0895A82FB92F80E05D
:1003300090E041E050EA609530E009C02D918227BD
:100340009795879510F084279527305EC8F36F5FE7
:10035000A8F30895EADF8D939D930895CF93CFB7C7
:10036000CF93C395B09BE9F7B09B09C0B09B07C082
:10037000B09B05C0B09B03C0B09B01C0A1C0DF9380
:10038000C0918701DD27C257DE4FB09B02C0DF91CD
:10039000EBCF2F930F931F9306B32FEF00FB20F9A2
:1003A0004F933F9316B34FEF012700FB21F93BE03A
:1003B00031C04E7F012F16B3216028C0102F4D7F12
:1003C0002260000006B329C04B7F2460012F00008B
:1003D00016B32BC016B3477F28602AC04F7E06B3E2
:1003E00020612CC04F7D16B320622FC04F7B06B317
:1003F000206432C0422706B349934FEF0000102714
:1004000010FB20F916B31370C9F1297F91F201276F
:1004100000FB21F906B3237F89F2315058F11027F0
:1004200010FB22F916B3277E79F2012700FB23F98E
:100430002F7C81F206B3102710FB24F92F7971F27B
:1004400000C016B3012700FB25F92F7359F200C035
:1004500006B3102710FB26F9223040F200C016B375
:10046000012700FB27F9243028F64F77206816B3C0
:100470000000F9CF10E41ABF002717C03B50319598
:10048000C31BD04010E41ABF0881033CE9F00B34D1
:10049000D9F0209185011981110F1213EDCF093682
:1004A00041F10D3211F0013E39F700938C013F917B
:1004B0004F911F910F912F91DF91CAB7C6FD51CF78
:1004C000CF91CFBFCF91189520918C01222379F342
:1004D00010918A01112311F5343012F130938A0101
:1004E00020938601109187013BE0311B30938701F7
:1004F00017C000918A0101308CF40AE53091600048
:1005000034FD10C000936000CAE7D1E00FC027950A
:10051000A8F45150A9F4220F0000F9CF4AE503C016
:1005200042ED01C0432FC4E1D0E032E017B31360C5
:10053000C09A17BB08B320E413E05F93012756E08D
:1005400008BB279520F4515021F4220FF9CF012741
:1005500056E000003B5A08BBD0F2279528F45150D2
:1005600029F4220F0000F9CF012756E0279508BB98
:1005700020F4515021F4220FF9CF012756E02991A0
:10058000332308BB21F60C7F10918B01110FC6514C
:10059000D04008BB11F01093850110E41ABF016030
:1005A00017B31C7F402F4C7F5F9100C000C008BB79
:1005B00017BB48BB7CCF582F48E080E02091A901B1
:1005C00057FD15C0C398880FB4998F5FC59A32B78D
:1005D00092B7931B9217E0F3C59832B792B7931B6B
:1005E0009217E0F3415029F0550F57FFEBCFC39A14
:1005F000EACF08958FB9779BFECF8FB1089521E19F
:1006000096958795779567952A95D1F72091A801BA
:100610002617D9F06093A801E091A501F091A601F9
:100620008DE40995E091A501F091A60180E009957E
:10063000E091A501F091A6018091A8010995E091B2
:10064000A501F091A60180E0099508958091A70188
:100650008DB98091A4018EB908958823B1F08830B6
:10066000E0F52BED32E03093A6012093A501843014
:1006700021F18530D0F0863029F1863030F1873095
:10068000C1F483E08093A90108958AEF92E09093EA
:10069000A6018093A50181E08093A90182E5809362
:1006A000A70181E08093A4010895823091F0833006
:1006B00041F080EC8093A901089588E18093A9011D
:1006C000089580E38093A90108958CE08093A901A7
:1006D000089580E68093A90108952AEF32E03093CF
:1006E000A6012093A5011092A40191E09093A90185
:1006F000893041F08A3050F4883081F683E5809368
:10070000A701089582E58093A70108958B3021F019
:100710008C3021F69093A40181E58093A701089580
:1007200022B79091A90182B7821B8917E0F308953F
:1007300087B38C6287BBC298C59822B79091A901F4
:1007400082B7821B8917E0F3C29A22B782B7821B55
:100750008917E0F3C2988091A5019091A60122E04B
:100760008A3F920719F01092A80108958091A7017D
:100770008DB98091A4018EB91092A801089587B314
:10078000837D87BB88B3837D88BB1DB8089580E1D6
:1007900087BB84E088BB80EC8DB908950F931F93CD
:1007A00010E2E091A501F091A6018CEA0995E09193
:1007B000A501F091A60183E50995E091A501F091CD
:1007C000A60180E00995082FE091A501F091A6010E
:1007D00080E00995033549F11DB822B79091A90130
:1007E00082B7821B8917E0F3C29A22B782B7821BB5
:1007F0008917E0F3C29822B782B7821B8917E0F30A
:10080000E091A501F091A60182E0EA3FF80731F0FE
:10081000115059F681E01F910F9108958091A70121
:100820008DB98091A4018EB9F3CF80E01F910F9113
:100830000895EF92FF920F931F937B018C01DFDEEF
:100840008E2D8170880F880F880FE091A501F0919F
:10085000A60180620995D801C70149E0B695A79520
:10086000979587954A95D1F7E091A501F091A6015A
:100870000995D801C701B695A79597958795E091F9
:10088000A501F091A6010995E091A501F091A601BD
:1008900080E009951F910F91FF90EF900895CF92FE
:1008A000DF92EF92FF920F931F93DF93CF930F92FC
:1008B000CDB7DEB77B018C01D42E2983A0DE8E2D2F
:1008C0008170880F880F880FE091A501F091A60133
:1008D00080640995D801C701F9E0B695A795979569
:1008E0008795FA95D1F7E091A501F091A6010995B8
:1008F000C801B7019695879577956795E091A50111
:10090000F091A601862F0995E091A501F091A6012D
:100910008D2D099529812223A9F08D2D8F37E9F09E
:10092000C2B65EE1D52EC801B70183DF8F3751F41F
:1009300082B78C198D3310F0C2B6DA94DD2099F7A6
:1009400081E001C080E00F90CF91DF911F910F9166
:10095000FF90EF90DF90CF9008958FE0ACD080E0D3
:10096000F2CFCF92DF92EF92FF920F931F93DF931C
:10097000CF930F92CDB7DEB77B018C0149833FDE69
:10098000E091A501F091A6018CE40995D801C70179
:1009900039E0B695A795979587953A95D1F7E09167
:1009A000A501F091A6010995D801C701B695A795B3
:1009B00097958795E091A501F091A6010995E091A1
:1009C000A501F091A60180E0099549814F3FE9F02A
:1009D000C2B6AEE1DA2EC801B7012BDF8F3F99F422
:1009E00082B78C198D3310F0C2B6DA94DD2099F7F6
:1009F00081E00F90CF91DF911F910F91FF90EF90C9
:100A0000DF90CF90089580E0F4CF8FE054D080E065
:100A1000F0CF1F93DF93CF930F92CDB7DEB7182F90
:100A2000E091A501F091A60180EA99830995E091F2
:100A3000A501F091A6019981892F0995E091A50161
:100A4000F091A601812F0995E091A501F091A601F1
:100A500080E009950F90CF91DF911F9108951F932A
:100A6000DF93CF9300D0CDB7DEB7182FE091A5016B
:100A7000F091A60180EC6A8399830995E091A50124
:100A8000F091A6019981892F0995E091A501F09136
:100A9000A601812F0995E091A501F091A6016A8137
:100AA000862F09958EE107D080E00F900F90CF91AF
:100AB000DF911F910895882349F030E022B792B763
:100AC000921B9C33E0F33F5F3817C0F30895BD9A43
:100AD000BB98C39A50E217D05A95E9F70895AC0134
:100AE00088E605D0842F03D089E601D0852F0FD06A
:100AF00028E030E0382780FB869506D02A95D1F78C
:100B000030FB02D000D06894BB98C39A16F0C3980B
:100B1000BB9AE091AA01F091AB013197F0F7C59A29
:100B2000E6B3E3FBE091AA01F091AB013197F0F756
:100B3000C598089520ECE7DF46F42A95E1F780E0B8
:100B40002AE1E5DF2A95E9F7DECF28E030E0DBDFB8
:100B5000869587F938272A95D1F7D5DF27F93227E7
:100B600072F3D1DFD0CFDB01742FB9DF84E2BFDFB6
:100B7000E1DF8D937A95D1F70895DB01742FAFDF14
:100B800083EFB5DF8DE1B3DF84E6B1DF8D91AFDFB9
:100B900082E7ADDFCFDF8078D9F77A9589F70895BE
:100BA00078941F920F920FB60F9211248F939F93F8
:100BB000EF93FF93809179019FB1E9E7F0E0E80FAF
:100BC000F11D90838F5F80937901FF91EF919F9149
:100BD0008F910F900FBE0F901F901895CF93DF93BA
:100BE000EC0189818130E9F1823009F4D4C083308D
:100BF00009F477C0843009F447C0873009F49EC0F7
:100C0000853009F43BC1863009F4CBC0883009F443
:100C100008C1893009F439C18A3009F46CC18B30BC
:100C200009F495C18C3009F4B6C18D3009F4CAC1FC
:100C30008E3009F4CEC18F3009F43AC1803109F405
:100C400063C18F3709F49AC1803209F4E5C1823259
:100C500009F4EAC1813209F4C2C180E020E730E042
:100C600039C09A9B68C080916E00F7DC10926F00CB
:100C7000A9985EDD80E020E730E030938901209381
:100C80008801DF91CF91089580916F00882391F4BE
:100C90003B8120E08A8190E0822B932BAA2797FD4D
:100CA000A095BA2F8093640090936500A09366008E
:100CB000B09367003F8120E08E8190E0822B932BE0
:100CC000909369008093680082E0809363008FEFC7
:100CD00020E730E03093890120938801DF91CF91A4
:100CE0000895E091A501F091A6018A81099580936C
:100CF0007000E091A501F091A6018B810995809388
:100D00007100E091A501F091A6018C810995809375
:100D10007200E091A501F091A6018D810995809363
:100D2000730084E020E730E030938901209388014C
:100D3000DF91CF91089585E090DC98CF80916F008E
:100D4000882391F43B8120E08A8190E0822B932BD1
:100D5000AA2797FDA095BA2F809364009093650011
:100D6000A0936600B09367003F8120E08E8190E001
:100D7000822B932B909369008093680083E080938B
:100D800063008FEF20E730E03093890120938801E2
:100D9000DF91CF910895F3DCA99A80E020E730E05D
:100DA00099CF80916F00882391F43B8120E08A8164
:100DB00090E0822B932BAA2797FDA095BA2F8093C2
:100DC000640090936500A0936600B09367003C8137
:100DD0008D81282F2F7020936D0090E0807F907080
:100DE00082959295907F9827807F9827830F911DF9
:100DF00090936B0080936A0020FF02C080936C0088
:100E00003F8120E08E8190E0822B932B90936900AC
:100E10008093680081E0809363008FEF20E730E0EB
:100E200059CF80916F00882391F43B8120E08A8123
:100E300090E0822B932BAA2797FDA095BA2F809341
:100E4000640090936500A0936600B09367001092D1
:100E50006B0010926A0010926D003F8120E08E813D
:100E600090E0822B932B909369008093680084E03C
:100E7000809363008FEF20E730E02CCF8FDC8093EE
:100E8000700081E020E730E025CF81E080936F00A3
:100E90008A819B81AC81BD818093640090936500C1
:100EA000A0936600B093670080E020E730E012CFA7
:100EB0003B8120E08A8190E0822B932BAA2797FD2B
:100EC000A095BA2F8093640090936500A09366006C
:100ED000B09367003F8120E08E8190E0822B932BBE
:100EE000909369008093680085E0809363008FEFA2
:100EF00020E730E0EFCE8A8180936E001092700080
:100F000081E020E730E0E6CE3B8120E08A8190E07E
:100F1000822B932BAA2797FDA095BA2F809364006C
:100F200090936500A0936600B09367003F8120E036
:100F30008E8190E0822B932B9093690080936800C0
:100F400086E0809363008FEF20E730E0C3CE3B81E3
:100F500020E08A8190E0822B932B9093AB018093C9
:100F6000AA01C29ABA9A83E0A6DDC298A99880E144
:100F7000A2DDADDD80E020E730E0ACCE81E0809303
:100F8000700010927100109272001092730084E051
:100F900020E730E09FCE80ECAADD80E0A8DD8AE08B
:100FA0008ADDC29A85E087DDC29885E084DD87B35B
:100FB000837D87BB88B3837D88BBA99A80E020E7C7
:100FC00030E088CEB7DD8093700081E020E730E02C
:100FD00081CE8A818CDD80E020E730E07BCE90916D
:100FE000780050917901951709F437CE20E730E069
:100FF000D90180E0E92FF0E0E758FF4F40814D93A1
:101000009F5F8F5F591729F08830A1F79093780080
:1010100061CE509378005ECEBADB87E080936300A8
:1010200080E020E730E056CEA99AA9DB1092630059
:1010300080E020E730E04ECEEF92FF920F931F93B7
:10104000CF93DF93082F292F162F30916300832F22
:101050008250823060F0353009F448C01FEF812F94
:10106000DF91CF911F910F91FF90EF90089566232C
:1010700099F1609164007091650080916600909193
:101080006700E02EE7017E01F22EE7011EC0CB01D2
:10109000C0DC888360916400709165008091660077
:1010A000909167006F5F7F4F8F4F9F4F60936400F9
:1010B0007093650080936600909367002196AE015F
:1010C000401B411738F430916300323001F7B1DB37
:1010D0008883E0CF183018F610926300812FDF91DB
:1010E000CF911F910F91FF90EF9008958091640030
:1010F00090916500602F722F412F35DD8091640043
:1011000090916500A0916600B0916700810F911DDC
:10111000A11DB11D8093640090936500A0936600AB
:10112000B09367009CCFEF92FF920F931F93CF93E2
:10113000DF93082F292F162F30916300313079F07B
:10114000343069F0363009F48EC0FF24FA948F2DC4
:10115000DF91CF911F910F91FF90EF900895112390
:1011600009F4AEC0609164007091650080916600E2
:1011700090916700E02EE7017E01F22EE701FF2447
:101180004EC020916A0030916B002115310509F0A5
:1011900050C0488121E083DB809168009091690014
:1011A000019790936900809368000097E1F4109292
:1011B000630080916D0081FF39C020916C0030E0A8
:1011C00080916A0090916B002817390779F160913E
:1011D000640070916500809166009091670048817D
:1011E000C0DBFF24F39460916400709165008091EE
:1011F0006600909167006F5F7F4F8F4F9F4F6093A6
:101200006400709365008093660090936700219658
:10121000AE01401B411708F09ACF30916300313086
:1012200009F4AFCFCB0168811ADCB6CFFF24F39469
:10123000DACF488120E033DB80916C0081508093CD
:101240006C00882309F0A8CF60916400709165005C
:101250008091660090916700488183DB80916A00ED
:1012600080936C0099CF8091640090916500602F0D
:10127000722F412F82DC8091640090916500A091D3
:101280006600B0916700810F911DA11DB11D809373
:10129000640090936500A0936600B093670080910E
:1012A000680090916900811B910990936900809377
:1012B0006800009729F410926300FF24F39447CF4D
:1012C000FF2445CF1F93CF93DF9312BA18BA8BEF49
:1012D00081BB8FEF87BB17BA83E084BB9EEF95BBC2
:1012E00083BF1CD8789412E0C0E0D0E8E1D68091AA
:1012F00063008730D9F78091AC019091AD010197DF
:101300009093AD018093AC01009781F785B381275D
:1013100085BBD093AD01C093AC01E8CFF894FFCF6B
:021320005AFF72
:00000001FF
