:1000000042C0A4C15BC05AC059C058C057C056C0F6
:1000100055C054C053C052C051C050C04FC04EC054
:100020004DC0B3C54BC04AC049C048C047C046C018
:1000300045C044C0090212000101008019090400F2
:1000400000000000000012011001FF000008C016AF
:10005000DC050401010200010E03550053004200BB
:100060006100730070001C037700770077002E009A
:10007000660069007300630068006C002E00640075
:1000800065000403090411241FBECFEFD4E0DEBFD6
:10009000CDBF11E0A0E0B1E0E8E9F2E102C00590D7
:1000A0000D92A230B107D9F722E0A2E0B1E001C081
:1000B0001D92AE34B207E1F7C5D8ECC8A1CFCF93FB
:1000C000DF9360912A02635067FD14C020912702DC
:1000D0008CE090E0821B9109EC01C25DDD4F8091C4
:1000E00026028D3209F455C08091020187FD97C028
:1000F00010922A028091010184FF3EC060910001AC
:100100006F3FD1F1693008F46CC068506093000112
:1001100090911A0288E8892780931A0268E08091FA
:10012000020187FD1CC0209128023091290286FF20
:100130006DC0ABE1B2E0F901962F84918D933196B9
:100140009150D9F78FEF860F90E00196280F391F55
:100150003093290220932802C4E0C60F4DC08BE1E2
:1001600092E01ED7682F893008F49FC08FEF8093EC
:100170000001CEE1C093010194E183B1837031F4B9
:100180009150D9F710922B0210922502DF91CF9156
:100190000895683009F0ACCF83EC80931A028AE5A9
:1001A00080930101109202018881807609F041C09C
:1001B0008A81109223029981911146C010922402E3
:1001C00023E232E082E030932902209328029F81CB
:1001D000911104C09E81981708F4892F8093000123
:1001E00087CF1092000190911A0288E889278093A6
:1001F0001A02611194CFC4E08BE192E0A3D0CC301D
:1002000009F4B8CF8FEF80930001B4CFD901EBE1AF
:10021000F2E0962F8D9181939150E1F793CFCE012B
:100220003FD78F3F01F1882309F462CF109200017C
:100230005FCFCE01C8D48F3F51F6988197FD1DC086
:1002400090E890930201CACF953089F0963009F179
:100250009830D9F0993099F081E09A3009F080E037
:1002600023E232E0B0CF8EE18093010141CF809351
:100270002B0223E232E080E0A6CF8E81E1CF809393
:100280002D0223E232E080E09ECF2DE232E081E0D9
:100290009ACF9B819130F1F09230A1F0933041F0F0
:1002A00080E090E49093020192CFC4E0C80FA4CF05
:1002B000811118C082E890E090932902809328026F
:1002C00084E0EFCF84E390E09093290280932802AA
:1002D00082E1E7CF86E490E09093290280932802A0
:1002E00082E1DFCF813051F08230D1F688E590E0B5
:1002F00090932902809328028EE0D3CF86E690E087
:1003000090932902809328028CE1CBCFE9E6F0E0BC
:10031000808183608083E89A0895A82FB92F80E0B8
:1003200090E041E050EA609530E009C02D918227CD
:100330009795879510F084279527305EC8F36F5FF7
:10034000A8F30895EADF8D939D930895CF93CFB7D7
:10035000CF93C395189BE9F7189B09C0189B07C05A
:10036000189B05C0189B03C0189B01C0A1C0DF9358
:10037000C0912702DD27C25DDD4F189B02C0DF91CF
:10038000EBCF2F930F931F9303B12FEF00FB20F9B7
:100390004F933F9313B14FEF012700FB21F93BE04F
:1003A00031C04E7F012F13B1216028C0102F4D7F27
:1003B0002260000003B129C04B7F2460012F0000A0
:1003C00013B12BC013B1477F28602AC04F7E03B101
:1003D00020612CC04F7D13B120622FC04F7B03B131
:1003E000206432C0422703B149934FEF0000102729
:1003F00010FB20F913B11370C9F1297F91F2012785
:1004000000FB21F903B1237F89F2315058F1102705
:1004100010FB22F913B1277E79F2012700FB23F9A3
:100420002F7C81F203B1102710FB24F92F7971F290
:1004300000C013B1012700FB25F92F7359F200C04A
:1004400003B1102710FB26F9223040F200C013B18F
:10045000012700FB27F9243028F64F77206813B1D5
:100460000000F9CF11E01CBB002717C03B503195AD
:10047000C31BD04011E01CBB0881033CE9F00B34E6
:10048000D9F0209125021981110F1213EDCF0936F1
:1004900041F10D3211F0013E39F700932C023F91EA
:1004A0004F911F910F912F91DF91CCB3C0FD51CF90
:1004B000CF91CFBFCF91189520912C02222379F3B1
:1004C00010912A02112311F5343012F130932A02CF
:1004D00020932602109127023BE0311B3093270224
:1004E00017C000912A0201308CF40AE53091010115
:1004F00034FD10C000930101CAE1D2E00FC027957E
:10050000A8F45150A9F4220F0000F9CF4AE503C026
:1005100042ED01C0432FC4E1D0E032E014B11360DA
:10052000289A14B905B120E413E05F93012756E03F
:1005300005B9279520F4515021F4220FF9CF012756
:1005400056E000003B5A05B9D0F2279528F45150E7
:1005500029F4220F0000F9CF012756E0279505B9AD
:1005600020F4515021F4220FF9CF012756E02991B0
:10057000332305B921F60C7F10912B02110FC651C0
:10058000D04005B911F01093250211E01CBB0160A9
:1005900014B11C7F402F4C7F5F9100C000C005B993
:1005A00014B945B97CCF582F48E080E057FD18C0FA
:1005B0002B98550F880F1C998F5F2D9A36B5209177
:1005C000490296B5931B9217E0F32D9836B520910A
:1005D000490296B5931B9217E0F3415039F70895FD
:1005E0002B9AE7CF8EBD0DB407FEFDCF8EB50895D3
:1005F000DC01CB0121E1B695A795979587952A95C2
:10060000D1F7209148022817D9F080934802E09151
:100610004502F09146028DE40995E0914502F09182
:10062000460280E00995E0914502F09146028091F2
:1006300048020995E0914502F091460280E0099454
:100640000895809147028CBD809144028DBD08952C
:100650008823A1F08830D0F523ED32E030934602B4
:10066000209345028430F1F008F18630C1F030F17A
:100670008730A1F483E080934902089582EF92E0ED
:10068000909346028093450281E08093490282E57F
:100690008093470281E080934402089580EC809328
:1006A0004902089588E1809349020895823051F00B
:1006B0008330A1F780E38093490208958CE0809312
:1006C0004902089580E680934902089522EF32E0BE
:1006D00030934602209345021092440291E0909399
:1006E0004902893059F070F08B3021F08C3079F666
:1006F0009093440281E580934702089582E58093B8
:1007000047020895883019F683E5809347020895DB
:1007100026B59091490286B5821B8917E0F30895AA
:1007200084B18C6284B92A982D9826B5909149029B
:1007300086B5821B8917E0F32A9A26B59091490263
:1007400086B5821B8917E0F32A9880914502909123
:100750004602825F924019F01092480208958091FB
:1007600047028CBD809144028DBD109248020895CD
:1007700084B1837D84B985B1837D85B91CBC08951E
:1007800080E184B984E085B980EC8CBD0895CF9375
:10079000DF93C0E2E0914502F09146028CEA0995B0
:1007A000E0914502F091460283E50995E09145020A
:1007B000F091460280E00995D82FE0914502F09132
:1007C000460280E00995D33561F11CBC26B59091B5
:1007D000490286B5821B8917E0F32A9A26B59091C3
:1007E000490286B5821B8917E0F32A9826B59091B5
:1007F000490286B5821B8917E0F3809145029091EA
:100800004602825F924031F0C15021F681E0DF91D3
:10081000CF910895809147028CBD809144028DBD97
:10082000F3CF80E0DF91CF910895CF92DF92EF92E6
:10083000FF926B017C01DCDE8C2D8170880F880FAC
:10084000880FE0914502F091460280620995D70138
:10085000C60129E0B695A795979587952A95D1F772
:10086000E0914502F09146020995D701C601B6957F
:10087000A79597958795E0914502F09146020995D5
:10088000E0914502F091460280E0FF90EF90DF900A
:10089000CF900994CF92DF92EF92FF920F931F9324
:1008A000CF93DF931F92CDB7DEB76B017C01142F7E
:1008B00029839EDE9C2D9170892F880F880F880FC9
:1008C000E0914502F091460280640995D701C60186
:1008D00029E0B695A795979587952A95D1F7E09148
:1008E0004502F09146020995D701C601B695A79534
:1008F00097958795E0914502F09146020995E09120
:100900004502F0914602812F099529812223A9F001
:100910001F3789F006B51EE1C701B60186DF8F37A4
:1009200061F486B5801B8D3310F006B5115011119E
:10093000F3CF81E003C08FE0B3D080E00F90DF9170
:10094000CF911F910F91FF90EF90DF90CF9008957E
:10095000CF92DF92EF92FF920F931F93CF93DF938B
:100960001F92CDB7DEB76B017C01498341DEE09178
:100970004502F09146028CE40995D701C60129E0B1
:10098000B695A795979587952A95D1F7E091450259
:10099000F09146020995D701C601B695A79597959E
:1009A0008795E0914502F09146020995E091450254
:1009B000F091460280E0099549814F3FE1F006B58C
:1009C0001EE1C701B60131DF8F3F99F486B5801B68
:1009D0008D3310F006B511501111F3CF81E00F9057
:1009E000DF91CF911F910F91FF90EF90DF90CF900B
:1009F000089580E0F4CF8FE053D080E0F0CF1F93D4
:100A0000CF93DF931F92CDB7DEB7182FE091450249
:100A1000F091460280EA99830995E0914502F091B0
:100A200046029981892F0995E0914502F09146028D
:100A3000812F0995E0914502F091460280E00F90E8
:100A4000DF91CF911F9109941F93CF93DF9300D033
:100A5000CDB7DEB7182FE0914502F091460280EC49
:100A60006A8399830995E0914502F0914602998144
:100A7000892F0995E0914502F0914602812F099551
:100A8000E0914502F09146026A81862F09958EE138
:100A900007D080E00F900F90DF91CF911F910895C4
:100AA000882349F030E026B596B5921B9C33E0F3DD
:100AB0003F5F3813F8CF0895259A23982B9A50E278
:100AC00017D05A95E9F70895AC0188E605D0842F30
:100AD00003D089E601D0852F0FD028E030E03827F9
:100AE00080FB869506D02A95D1F730FB02D000D046
:100AF000689423982B9A16F02B98239AE0914A0237
:100B0000F0914B023197F0F72D9AE3B1E3FBE091BE
:100B10004A02F0914B023197F0F72D98089520EC9E
:100B2000E7DF46F42A95E1F780E02AE1E5DF2A9540
:100B3000E9F7DECF28E030E0DBDF869587F938275C
:100B40002A95D1F7D5DF27F9322772F3D1DFD0CF3D
:100B5000DB01742FB9DF84E2BFDFE1DF8D937A958B
:100B6000D1F70895DB01742FAFDF83EFB5DF8DE19F
:100B7000B3DF84E6B1DF8D91AFDF82E7ADDFCFDF9A
:100B80008078D9F77A9589F7089578941F920F9213
:100B90000FB60F9211248F939F93EF93FF93809141
:100BA00010019EB5E82FF0E0EE5EFE4F90838F5F60
:100BB00080931001FF91EF919F918F910F900FBE45
:100BC0000F901F901895CF93DF93EC01998191308E
:100BD000D1F1923009F4B9C0933009F46CC094306B
:100BE000E9F1973009F48CC0953009F430C19630A2
:100BF00009F4AFC0983009F4E6C0993009F42CC16B
:100C00009A3009F45BC19B3009F480C19C3009F42F
:100C10009DC19D3009F4AFC19E3009F4B1C19F3030
:100C200009F42BC1903109F450C19F3709F483C1F5
:100C3000903209F4A9C1923209F4ACC1913209F49D
:100C4000EDC080E02FC0329B58C080910E0100DDC6
:100C500010920D01419864DD80E024C080910D0167
:100C6000811112C08B8190E0982F88272A81822BD6
:100C7000092E000CAA0BBB0B8093090190930A016B
:100C8000A0930B01B0930C018F8190E0982F8827DF
:100C90002E81822B909308018093070182E080933C
:100CA0000F018FEF22E132E03093290220932802D6
:100CB000DF91CF910895E0914502F09146028A813B
:100CC000099580931202E0914502F09146028B81D2
:100CD000099580931302E0914502F09146028C81C0
:100CE000099580931402E0914502F09146028D81AE
:100CF00009958093150284E0D5CF85E0A9DCA8CFC3
:100D000080910D01811112C08B8190E0982F88276E
:100D10002A81822B092E000CAA0BBB0B80930901A0
:100D200090930A01A0930B01B0930C018F8190E086
:100D3000982F88272E81822B90930801809307019A
:100D400083E080930F018FEFADCF12DD419A80E0F9
:100D5000A9CF80910D01811112C08B8190E0982F55
:100D600088272A81822B092E000CAA0BBB0B8093AB
:100D7000090190930A01A0930B01B0930C013C81EF
:100D80002D81822F8F7080930401822F807F40E11C
:100D9000849FC0011124830F911D909306018093BD
:100DA000050120FD809303018F8190E0982F882713
:100DB0002E81822B909308018093070181E080931C
:100DC0000F018FEF6FCF80910D01811112C08B81C8
:100DD00090E0982F88272A81822B092E000CAA0BDD
:100DE000BB0B8093090190930A01A0930B01B09370
:100DF0000C011092060110920501109204018F81DE
:100E000090E0982F88272E81822B90930801809361
:100E1000070184E080930F018FEF44CF909111017F
:100E200030911001931709F40CCFA2E1B2E080E0F9
:100E3000E92FF0E0EE5EFE4F20812D939F5F8F5FE4
:100E4000931711F08830A1F7909311012BCF9FDCFD
:100E50008093120281E026CF81E080930D018A8188
:100E60009B81AC81BD818093090190930A01A0937D
:100E70000B01B0930C0180E015CF8B8190E0982F8F
:100E800088272A81822B092E000CAA0BBB0B80938A
:100E9000090190930A01A0930B01B0930C018F817B
:100EA00090E0982F88272E81822B909308018093C1
:100EB000070185E080930F018FEFF4CE8A81809344
:100EC0000E011092120281E0EDCE8B8190E0982FFE
:100ED00088272A81822B092E000CAA0BBB0B80933A
:100EE000090190930A01A0930B01B0930C018F812B
:100EF00090E0982F88272E81822B90930801809371
:100F0000070186E080930F018FEFCCCE8B8190E0BC
:100F1000982F88272A81822B90934B0280934A0234
:100F20002A9A229A83E0BCDD2A98419880E1B8DDB4
:100F3000C3DD80E0B7CE81E08093120210921302ED
:100F4000109214021092150284E0ACCE80ECC4DD45
:100F500080E0C2DD8AE0A4DD2A9A85E0A1DD2A983E
:100F600085E09EDD84B1837D84B985B1837D85B9BB
:100F7000419A80E097CED3DD8093120281E092CE39
:100F80008A81AADD80E08ECEFBDB87E080930F01B3
:100F900080E088CE419AECDB10920F0180E082CE97
:100FA000FF920F931F93CF93DF93582F792FF62E35
:100FB00020910F013EEF320F323050F0253009F40E
:100FC00052C08FEFDF91CF911F910F91FF90089545
:100FD000662309F43FC08091090190910A01A09114
:100FE0000B01B0910C01052F172F3FEF360FE801D1
:100FF000C30FD11D1DC003DDF8018083809109015D
:1010000090910A01A0910B01B0910C010196A11DD4
:10101000B11D8093090190930A01A0930B01B09335
:101020000C010C171D0761F020910F010F5F1F4F7E
:10103000223009F7BC01CD01F8DBF8018083DECF57
:10104000F7E0FF1538F48F2DDF91CF911F910F91AD
:10105000FF90089510920F018F2DDF91CF911F9176
:101060000F91FF900895462F682F8091090190916C
:101070000A016EDD8091090190910A01A0910B0196
:10108000B0910C018F0D911DA11DB11D809309011F
:1010900090930A01A0930B01B0930C018F2D92CF76
:1010A000FF920F931F93CF93DF93382F792F162F33
:1010B00020910F01213061F0243051F0263009F4E5
:1010C00094C08FEFDF91CF911F910F91FF90089502
:1010D000112309F482C08091090190910A01A09125
:1010E0000B01B0910C01C32FD72F1150AE01410F4E
:1010F000511D8A01F12C4DC020910501309106014E
:10110000232B09F04FC021E04881BC01CD01C2DB97
:1011100020910701309108012150310930930801D5
:1011200020930701232BE1F410920F018091040119
:1011300081FF35C08091030190E02091050130913D
:1011400006018217930759F16091090170910A0114
:1011500080910B0190910C014881FADBFF24F394FC
:101160008091090190910A01A0910B01B0910C01AD
:101170000196A11DB11D8093090190930A01A093CE
:101180000B01B0930C01C017D10741F120910F0161
:101190002196213009F4B0CF688156DCB9CFFF2405
:1011A000F394DECF20E04881BC01CD0173DB809158
:1011B00003018150809303018111AACF609109013D
:1011C00070910A0180910B0190910C014881C0DB64
:1011D00080910501809303019BCFF12C8F2DDF912E
:1011E000CF911F910F91FF900895462F682F809106
:1011F000090190910A01B6DC8091090190910A01E0
:10120000A0910B01B0910C01810F911DA11DB11D89
:101210008093090190930A01A0930B01B0930C01F4
:101220008091070190910801811B91099093080119
:1012300080930701892B21F410920F0181E042CFA6
:1012400080E040CF1BB815B81AB88FEF84B914B836
:1012500083E087B99EEF98B985BD58D8789412E09D
:10126000C0E0D0E82CD780910F018730D9F780916A
:101270004C0290914D02019790934D0280934C0245
:10128000892B81F788B1812788B9D0934D02C0930B
:081290004C02E8CFF894FFCFF7
:02129800FF5AFB
:00000001FF
